{
    "contractName": "TicTacToe",
    "abi": [
        {
            "constant": false,
            "inputs": [
                {
                    "internalType": "address",
                    "name": "host",
                    "type": "address"
                }
            ],
            "name": "join",
            "outputs": [],
            "payable": true,
            "stateMutability": "payable",
            "type": "function"
        },
        {
            "constant": false,
            "inputs": [],
            "name": "createGame",
            "outputs": [],
            "payable": true,
            "stateMutability": "payable",
            "type": "function"
        },
        {
            "anonymous": false,
            "inputs": [
                {
                    "indexed": false,
                    "internalType": "address",
                    "name": "host",
                    "type": "address"
                }
            ],
            "name": "Created",
            "type": "event"
        },
        {
            "anonymous": false,
            "inputs": [
                {
                    "indexed": false,
                    "internalType": "address",
                    "name": "host",
                    "type": "address"
                }
            ],
            "name": "Started",
            "type": "event"
        }
    ],
    "bytecode": "608060405234801561001057600080fd5b50610163806100206000396000f3fe6080604052600436106100295760003560e01c806328ffe6c81461002e5780637255d72914610056575b600080fd5b6100546004803603602081101561004457600080fd5b50356001600160a01b031661005e565b005b6100546100e0565b6001600160a01b03811660009081526020819052604090206001810154341461008657600080fd5b6001810180543401905580546001600160a01b03191633178155604080516001600160a01b038416815290517f27029695aa5f602a4ee81f4c32dfa86e562f200a17966496f3a7c3f2ec0f94179181900360200190a15050565b33600081815260208181526040918290203460018201558251938452915191927f1449abf21e49fd025f33495e77f7b1461caefdd3d4bb646424a3f445c4576a5b929081900390910190a15056fea265627a7a72315820cfa69de1b86be339382eb22407434970829dfc9817eed4920d9b9ababb7b694f64736f6c634300050b0032",
    "sourcePath": "/home/astrahasis/Dokumente/dev/DeTacToe/contracts/TicTacToe.sol",
    "compiler": {
        "name": "solc",
        "version": "0.5.11+commit.c082d0b4"
    },
    "functionHashes": {
        "createGame()": "7255d729",
        "join(address)": "28ffe6c8"
    },
    "gasEstimates": {
        "creation": {
            "codeDepositCost": "71000",
            "executionCost": "123",
            "totalCost": "71123"
        },
        "external": {
            "createGame()": "21282",
            "join(address)": "42013"
        }
    }
}