{
  "contractName": "TicTacToe",
  "abi": [
    {
      "anonymous": false,
      "inputs": [
        {
          "indexed": false,
          "internalType": "address",
          "name": "host",
          "type": "address"
        }
      ],
      "name": "Cancelled",
      "type": "event"
    },
    {
      "anonymous": false,
      "inputs": [
        {
          "indexed": false,
          "internalType": "address",
          "name": "host",
          "type": "address"
        },
        {
          "indexed": false,
          "internalType": "uint256",
          "name": "bet",
          "type": "uint256"
        }
      ],
      "name": "Created",
      "type": "event"
    },
    {
      "anonymous": false,
      "inputs": [
        {
          "indexed": false,
          "internalType": "address",
          "name": "host",
          "type": "address"
        },
        {
          "indexed": false,
          "internalType": "address",
          "name": "author",
          "type": "address"
        },
        {
          "indexed": false,
          "internalType": "uint256[2]",
          "name": "coords",
          "type": "uint256[2]"
        }
      ],
      "name": "Move",
      "type": "event"
    },
    {
      "anonymous": false,
      "inputs": [
        {
          "indexed": false,
          "internalType": "address",
          "name": "host",
          "type": "address"
        },
        {
          "indexed": false,
          "internalType": "address",
          "name": "visitor",
          "type": "address"
        },
        {
          "indexed": false,
          "internalType": "address",
          "name": "winner",
          "type": "address"
        },
        {
          "indexed": false,
          "internalType": "uint256",
          "name": "bet",
          "type": "uint256"
        }
      ],
      "name": "Squared",
      "type": "event"
    },
    {
      "anonymous": false,
      "inputs": [
        {
          "indexed": false,
          "internalType": "address",
          "name": "host",
          "type": "address"
        },
        {
          "indexed": false,
          "internalType": "address",
          "name": "visitor",
          "type": "address"
        }
      ],
      "name": "Started",
      "type": "event"
    },
    {
      "inputs": [
        {
          "internalType": "address",
          "name": "",
          "type": "address"
        }
      ],
      "name": "games",
      "outputs": [
        {
          "internalType": "address",
          "name": "host",
          "type": "address"
        },
        {
          "internalType": "address",
          "name": "visitor",
          "type": "address"
        },
        {
          "internalType": "uint256",
          "name": "bet",
          "type": "uint256"
        }
      ],
      "stateMutability": "view",
      "type": "function",
      "constant": true
    },
    {
      "inputs": [
        {
          "internalType": "address",
          "name": "",
          "type": "address"
        }
      ],
      "name": "status",
      "outputs": [
        {
          "internalType": "uint16",
          "name": "created",
          "type": "uint16"
        },
        {
          "internalType": "uint16",
          "name": "won",
          "type": "uint16"
        },
        {
          "internalType": "uint16",
          "name": "lost",
          "type": "uint16"
        },
        {
          "internalType": "uint16",
          "name": "tie",
          "type": "uint16"
        },
        {
          "internalType": "address",
          "name": "current",
          "type": "address"
        }
      ],
      "stateMutability": "view",
      "type": "function",
      "constant": true
    },
    {
      "inputs": [],
      "name": "create",
      "outputs": [],
      "stateMutability": "payable",
      "type": "function",
      "payable": true
    },
    {
      "inputs": [],
      "name": "cancel",
      "outputs": [],
      "stateMutability": "payable",
      "type": "function",
      "payable": true
    },
    {
      "inputs": [
        {
          "internalType": "address",
          "name": "host",
          "type": "address"
        }
      ],
      "name": "join",
      "outputs": [],
      "stateMutability": "payable",
      "type": "function",
      "payable": true
    },
    {
      "inputs": [
        {
          "internalType": "address",
          "name": "host",
          "type": "address"
        }
      ],
      "name": "claim",
      "outputs": [],
      "stateMutability": "nonpayable",
      "type": "function"
    }
  ],
  "bytecode": "0x608060405234801561001057600080fd5b50610cb7806100206000396000f3fe6080604052600436106100555760003560e01c80631e83409a1461005a57806328ffe6c814610083578063645b8b1b1461009f57806379131a19146100e0578063ea8a1af01461011f578063efc81a8c14610129575b600080fd5b34801561006657600080fd5b50610081600480360381019061007c9190610998565b610133565b005b61009d60048036038101906100989190610998565b610336565b005b3480156100ab57600080fd5b506100c660048036038101906100c19190610998565b6104c7565b6040516100d79594939291906109f1565b60405180910390f35b3480156100ec57600080fd5b5061010760048036038101906101029190610998565b610555565b60405161011693929190610a5d565b60405180910390f35b6101276105bf565b005b610131610787565b005b60008060008373ffffffffffffffffffffffffffffffffffffffff1673ffffffffffffffffffffffffffffffffffffffff1681526020019081526020016000209050600081600201541161018657600080fd5b6000600160003373ffffffffffffffffffffffffffffffffffffffff1673ffffffffffffffffffffffffffffffffffffffff16815260200190815260200160002090503373ffffffffffffffffffffffffffffffffffffffff16600283600201546101f19190610ac3565b6040516101fd90610b4e565b60006040518083038185875af1925050503d806000811461023a576040519150601f19603f3d011682016040523d82523d6000602084013e61023f565b606091505b5050507f6e3e0cc857b3d5ac7fddb7cd1e45d2db238213951c9f3b3dd68adadaee88e9c3838360010160009054906101000a900473ffffffffffffffffffffffffffffffffffffffff1633856002015460405161029f9493929190610b63565b60405180910390a16000826002018190555060018160000160028282829054906101000a900461ffff166102d39190610ba8565b92506101000a81548161ffff021916908361ffff16021790555060008160000160086101000a81548173ffffffffffffffffffffffffffffffffffffffff021916908373ffffffffffffffffffffffffffffffffffffffff160217905550505050565b60008060008373ffffffffffffffffffffffffffffffffffffffff1673ffffffffffffffffffffffffffffffffffffffff16815260200190815260200160002090508060020154341480156103b757508173ffffffffffffffffffffffffffffffffffffffff163373ffffffffffffffffffffffffffffffffffffffff1614155b6103c057600080fd5b338160010160006101000a81548173ffffffffffffffffffffffffffffffffffffffff021916908373ffffffffffffffffffffffffffffffffffffffff1602179055506000600160003373ffffffffffffffffffffffffffffffffffffffff1673ffffffffffffffffffffffffffffffffffffffff1681526020019081526020016000209050828160000160086101000a81548173ffffffffffffffffffffffffffffffffffffffff021916908373ffffffffffffffffffffffffffffffffffffffff1602179055507f784517407ffa2f1943340ad5f22ac0c73b8349bc52a9ac5a8fe00d6c7bdc908383336040516104ba929190610be0565b60405180910390a1505050565b60016020528060005260406000206000915090508060000160009054906101000a900461ffff16908060000160029054906101000a900461ffff16908060000160049054906101000a900461ffff16908060000160069054906101000a900461ffff16908060000160089054906101000a900473ffffffffffffffffffffffffffffffffffffffff16905085565b60006020528060005260406000206000915090508060000160009054906101000a900473ffffffffffffffffffffffffffffffffffffffff16908060010160009054906101000a900473ffffffffffffffffffffffffffffffffffffffff16908060020154905083565b60008060003373ffffffffffffffffffffffffffffffffffffffff1673ffffffffffffffffffffffffffffffffffffffff1681526020019081526020016000209050600081600201541161061257600080fd5b6000600160003373ffffffffffffffffffffffffffffffffffffffff1673ffffffffffffffffffffffffffffffffffffffff168152602001908152602001600020905060018160000160008282829054906101000a900461ffff166106779190610c09565b92506101000a81548161ffff021916908361ffff16021790555060008160000160086101000a81548173ffffffffffffffffffffffffffffffffffffffff021916908373ffffffffffffffffffffffffffffffffffffffff1602179055503373ffffffffffffffffffffffffffffffffffffffff1682600201546040516106fd90610b4e565b60006040518083038185875af1925050503d806000811461073a576040519150601f19603f3d011682016040523d82523d6000602084013e61073f565b606091505b505050600082600201819055507f398bd6b21ae4164ec322fb0eb8c2eb6277f36fd41903fbbed594dfe1255912813360405161077b9190610c3d565b60405180910390a15050565b60008060003373ffffffffffffffffffffffffffffffffffffffff1673ffffffffffffffffffffffffffffffffffffffff16815260200190815260200160002090506000341180156107dd575060008160020154145b6107e657600080fd5b348160020181905550338160000160006101000a81548173ffffffffffffffffffffffffffffffffffffffff021916908373ffffffffffffffffffffffffffffffffffffffff1602179055506000600160003373ffffffffffffffffffffffffffffffffffffffff1673ffffffffffffffffffffffffffffffffffffffff168152602001908152602001600020905060018160000160008282829054906101000a900461ffff166108979190610ba8565b92506101000a81548161ffff021916908361ffff160217905550338160000160086101000a81548173ffffffffffffffffffffffffffffffffffffffff021916908373ffffffffffffffffffffffffffffffffffffffff1602179055507f0ce3610e89a4bb9ec9359763f99110ed52a4abaea0b62028a1637e242ca2768b338360020154604051610929929190610c58565b60405180910390a15050565b600080fd5b600073ffffffffffffffffffffffffffffffffffffffff82169050919050565b60006109658261093a565b9050919050565b6109758161095a565b811461098057600080fd5b50565b6000813590506109928161096c565b92915050565b6000602082840312156109ae576109ad610935565b5b60006109bc84828501610983565b91505092915050565b600061ffff82169050919050565b6109dc816109c5565b82525050565b6109eb8161095a565b82525050565b600060a082019050610a0660008301886109d3565b610a1360208301876109d3565b610a2060408301866109d3565b610a2d60608301856109d3565b610a3a60808301846109e2565b9695505050505050565b6000819050919050565b610a5781610a44565b82525050565b6000606082019050610a7260008301866109e2565b610a7f60208301856109e2565b610a8c6040830184610a4e565b949350505050565b7f4e487b7100000000000000000000000000000000000000000000000000000000600052601160045260246000fd5b6000610ace82610a44565b9150610ad983610a44565b9250817fffffffffffffffffffffffffffffffffffffffffffffffffffffffffffffffff0483118215151615610b1257610b11610a94565b5b828202905092915050565b600081905092915050565b50565b6000610b38600083610b1d565b9150610b4382610b28565b600082019050919050565b6000610b5982610b2b565b9150819050919050565b6000608082019050610b7860008301876109e2565b610b8560208301866109e2565b610b9260408301856109e2565b610b9f6060830184610a4e565b95945050505050565b6000610bb3826109c5565b9150610bbe836109c5565b92508261ffff03821115610bd557610bd4610a94565b5b828201905092915050565b6000604082019050610bf560008301856109e2565b610c0260208301846109e2565b9392505050565b6000610c14826109c5565b9150610c1f836109c5565b925082821015610c3257610c31610a94565b5b828203905092915050565b6000602082019050610c5260008301846109e2565b92915050565b6000604082019050610c6d60008301856109e2565b610c7a6020830184610a4e565b939250505056fea2646970667358221220de62bdfe375be3285a854a9f8ce9162abc64f7c16da3e016424923b10c92498e64736f6c634300080e0033",
  "immutableReferences": {},
  "source": "// SPDX-License-Identifier: MIT\npragma solidity >=0.4.22 <0.9.0;\n\ncontract TicTacToe {\n\n  event Created(address host, uint bet);\n  event Cancelled(address host);\n  event Started(address host, address visitor);\n  event Move(address host, address author, uint[2] coords);\n  event Squared(address host, address visitor, address winner, uint bet);\n\n  struct Game {\n    address host;\n    address visitor;\n    uint bet;\n  }\n\n  struct Status {\n    uint16 created;\n    uint16 won;\n    uint16 lost;\n    uint16 tie;\n    address current;\n  }\n\n  mapping (address=>Game) public games;\n\n  mapping (address=>Status) public status;\n\n  function create() public payable {\n    Game storage game = games[msg.sender];\n    // Requires a bet value and cancels if this player has already planned a game.\n    require(msg.value > 0 && game.bet == 0);\n    game.bet = msg.value;\n    game.host = msg.sender;\n    Status storage player = status[msg.sender];\n    player.created += 1;\n    player.current = msg.sender;\n    emit Created(msg.sender, game.bet);\n  }\n\n  function cancel() public payable {\n    Game storage game = games[msg.sender];\n    require(game.bet > 0);\n    Status storage player = status[msg.sender];\n    // The require above should ensure that player.created > 0, and prevent underflow.\n    player.created -= 1;\n    player.current = address(0);\n    // Recharge user.\n    msg.sender.call{value: game.bet}(\"\");\n    game.bet = 0;\n    emit Cancelled(msg.sender);\n  }\n\n  function join(address host) public payable {\n    Game storage game = games[host];\n    // Bets must be identical and addresses must be different.\n    require(msg.value == game.bet && msg.sender != host);\n    game.visitor = msg.sender;\n    Status storage player = status[msg.sender];\n    player.current = host;\n    emit Started(host, msg.sender);\n  }\n\n  function claim(address host) public {\n    Game storage game = games[host];\n    require(game.bet > 0);\n    Status storage player = status[msg.sender];\n    msg.sender.call{value: game.bet * 2}(\"\");\n    emit Squared(host, game.visitor, msg.sender, game.bet);\n    game.bet = 0;\n    player.won += 1;\n    player.current = address(0);\n  }\n}\n",
  "sourcePath": "/home/astrahasis/Dokumente/dev/DeTacToe/contracts/TicTacToe.sol",
  "compiler": {
    "name": "solc",
    "version": "0.8.14+commit.80d49f37.Emscripten.clang"
  },
  "schemaVersion": "3.4.7",
  "updatedAt": "2022-06-29T09:51:17.405Z",
  "networkType": "ethereum",
  "devdoc": {
    "kind": "dev",
    "methods": {},
    "version": 1
  },
  "userdoc": {
    "kind": "user",
    "methods": {},
    "version": 1
  }
}