{
  "contractName": "TicTacToe",
  "abi": [
    {
      "anonymous": false,
      "inputs": [
        {
          "indexed": false,
          "internalType": "address",
          "name": "host",
          "type": "address"
        }
      ],
      "name": "Cancelled",
      "type": "event"
    },
    {
      "anonymous": false,
      "inputs": [
        {
          "indexed": false,
          "internalType": "address",
          "name": "host",
          "type": "address"
        },
        {
          "indexed": false,
          "internalType": "uint256",
          "name": "bet",
          "type": "uint256"
        }
      ],
      "name": "Created",
      "type": "event"
    },
    {
      "anonymous": false,
      "inputs": [
        {
          "indexed": false,
          "internalType": "address",
          "name": "host",
          "type": "address"
        },
        {
          "indexed": false,
          "internalType": "address",
          "name": "author",
          "type": "address"
        },
        {
          "indexed": false,
          "internalType": "uint256[2]",
          "name": "coords",
          "type": "uint256[2]"
        }
      ],
      "name": "Move",
      "type": "event"
    },
    {
      "anonymous": false,
      "inputs": [
        {
          "indexed": false,
          "internalType": "address",
          "name": "host",
          "type": "address"
        },
        {
          "indexed": false,
          "internalType": "address",
          "name": "visitor",
          "type": "address"
        },
        {
          "indexed": false,
          "internalType": "address",
          "name": "winner",
          "type": "address"
        },
        {
          "indexed": false,
          "internalType": "uint256",
          "name": "bet",
          "type": "uint256"
        }
      ],
      "name": "Squared",
      "type": "event"
    },
    {
      "anonymous": false,
      "inputs": [
        {
          "indexed": false,
          "internalType": "address",
          "name": "host",
          "type": "address"
        },
        {
          "indexed": false,
          "internalType": "address",
          "name": "visitor",
          "type": "address"
        }
      ],
      "name": "Started",
      "type": "event"
    },
    {
      "inputs": [
        {
          "internalType": "address",
          "name": "",
          "type": "address"
        }
      ],
      "name": "games",
      "outputs": [
        {
          "internalType": "address",
          "name": "host",
          "type": "address"
        },
        {
          "internalType": "address",
          "name": "visitor",
          "type": "address"
        },
        {
          "internalType": "uint256",
          "name": "bet",
          "type": "uint256"
        }
      ],
      "stateMutability": "view",
      "type": "function",
      "constant": true
    },
    {
      "inputs": [
        {
          "internalType": "address",
          "name": "",
          "type": "address"
        }
      ],
      "name": "status",
      "outputs": [
        {
          "internalType": "uint16",
          "name": "created",
          "type": "uint16"
        },
        {
          "internalType": "uint16",
          "name": "won",
          "type": "uint16"
        },
        {
          "internalType": "uint16",
          "name": "lost",
          "type": "uint16"
        },
        {
          "internalType": "uint16",
          "name": "tie",
          "type": "uint16"
        },
        {
          "internalType": "address",
          "name": "current",
          "type": "address"
        }
      ],
      "stateMutability": "view",
      "type": "function",
      "constant": true
    },
    {
      "inputs": [],
      "name": "create",
      "outputs": [],
      "stateMutability": "payable",
      "type": "function",
      "payable": true
    },
    {
      "inputs": [],
      "name": "cancel",
      "outputs": [],
      "stateMutability": "nonpayable",
      "type": "function"
    },
    {
      "inputs": [
        {
          "internalType": "address",
          "name": "host",
          "type": "address"
        }
      ],
      "name": "join",
      "outputs": [],
      "stateMutability": "payable",
      "type": "function",
      "payable": true
    },
    {
      "inputs": [
        {
          "internalType": "address",
          "name": "host",
          "type": "address"
        }
      ],
      "name": "claim",
      "outputs": [],
      "stateMutability": "nonpayable",
      "type": "function"
    }
  ],
  "bytecode": "0x608060405234801561001057600080fd5b50610eb8806100206000396000f3fe6080604052600436106100555760003560e01c80631e83409a1461005a57806328ffe6c814610083578063645b8b1b1461009f57806379131a19146100e0578063ea8a1af01461011f578063efc81a8c14610136575b600080fd5b34801561006657600080fd5b50610081600480360381019061007c9190610b99565b610140565b005b61009d60048036038101906100989190610b99565b61047f565b005b3480156100ab57600080fd5b506100c660048036038101906100c19190610b99565b61066c565b6040516100d7959493929190610bf2565b60405180910390f35b3480156100ec57600080fd5b5061010760048036038101906101029190610b99565b6106fa565b60405161011693929190610c5e565b60405180910390f35b34801561012b57600080fd5b50610134610764565b005b61013e610988565b005b60008060008373ffffffffffffffffffffffffffffffffffffffff1673ffffffffffffffffffffffffffffffffffffffff1681526020019081526020016000209050600081600201541161019357600080fd5b8173ffffffffffffffffffffffffffffffffffffffff163373ffffffffffffffffffffffffffffffffffffffff161461028b576000600160008473ffffffffffffffffffffffffffffffffffffffff1673ffffffffffffffffffffffffffffffffffffffff168152602001908152602001600020905060018160000160048282829054906101000a900461ffff1661022b9190610cc4565b92506101000a81548161ffff021916908361ffff16021790555060008160000160086101000a81548173ffffffffffffffffffffffffffffffffffffffff021916908373ffffffffffffffffffffffffffffffffffffffff160217905550505b6000600160003373ffffffffffffffffffffffffffffffffffffffff1673ffffffffffffffffffffffffffffffffffffffff16815260200190815260200160002090503373ffffffffffffffffffffffffffffffffffffffff16600283600201546102f69190610cfc565b60405161030290610d87565b60006040518083038185875af1925050503d806000811461033f576040519150601f19603f3d011682016040523d82523d6000602084013e610344565b606091505b5050507f6e3e0cc857b3d5ac7fddb7cd1e45d2db238213951c9f3b3dd68adadaee88e9c3838360010160009054906101000a900473ffffffffffffffffffffffffffffffffffffffff163385600201546040516103a49493929190610d9c565b60405180910390a16000826002018190555060008260010160006101000a81548173ffffffffffffffffffffffffffffffffffffffff021916908373ffffffffffffffffffffffffffffffffffffffff16021790555060018160000160028282829054906101000a900461ffff1661041c9190610cc4565b92506101000a81548161ffff021916908361ffff16021790555060008160000160086101000a81548173ffffffffffffffffffffffffffffffffffffffff021916908373ffffffffffffffffffffffffffffffffffffffff160217905550505050565b60008060008373ffffffffffffffffffffffffffffffffffffffff1673ffffffffffffffffffffffffffffffffffffffff16815260200190815260200160002090506000600160003373ffffffffffffffffffffffffffffffffffffffff1673ffffffffffffffffffffffffffffffffffffffff168152602001908152602001600020905081600201543414801561054357508273ffffffffffffffffffffffffffffffffffffffff163373ffffffffffffffffffffffffffffffffffffffff1614155b801561059f5750600073ffffffffffffffffffffffffffffffffffffffff168160000160089054906101000a900473ffffffffffffffffffffffffffffffffffffffff1673ffffffffffffffffffffffffffffffffffffffff16145b6105a857600080fd5b338260010160006101000a81548173ffffffffffffffffffffffffffffffffffffffff021916908373ffffffffffffffffffffffffffffffffffffffff160217905550828160000160086101000a81548173ffffffffffffffffffffffffffffffffffffffff021916908373ffffffffffffffffffffffffffffffffffffffff1602179055507f784517407ffa2f1943340ad5f22ac0c73b8349bc52a9ac5a8fe00d6c7bdc9083833360405161065f929190610de1565b60405180910390a1505050565b60016020528060005260406000206000915090508060000160009054906101000a900461ffff16908060000160029054906101000a900461ffff16908060000160049054906101000a900461ffff16908060000160069054906101000a900461ffff16908060000160089054906101000a900473ffffffffffffffffffffffffffffffffffffffff16905085565b60006020528060005260406000206000915090508060000160009054906101000a900473ffffffffffffffffffffffffffffffffffffffff16908060010160009054906101000a900473ffffffffffffffffffffffffffffffffffffffff16908060020154905083565b60008060003373ffffffffffffffffffffffffffffffffffffffff1673ffffffffffffffffffffffffffffffffffffffff16815260200190815260200160002090506000816002015411801561080a5750600073ffffffffffffffffffffffffffffffffffffffff168160010160009054906101000a900473ffffffffffffffffffffffffffffffffffffffff1673ffffffffffffffffffffffffffffffffffffffff16145b61081357600080fd5b6000600160003373ffffffffffffffffffffffffffffffffffffffff1673ffffffffffffffffffffffffffffffffffffffff168152602001908152602001600020905060018160000160008282829054906101000a900461ffff166108789190610e0a565b92506101000a81548161ffff021916908361ffff16021790555060008160000160086101000a81548173ffffffffffffffffffffffffffffffffffffffff021916908373ffffffffffffffffffffffffffffffffffffffff1602179055503373ffffffffffffffffffffffffffffffffffffffff1682600201546040516108fe90610d87565b60006040518083038185875af1925050503d806000811461093b576040519150601f19603f3d011682016040523d82523d6000602084013e610940565b606091505b505050600082600201819055507f398bd6b21ae4164ec322fb0eb8c2eb6277f36fd41903fbbed594dfe1255912813360405161097c9190610e3e565b60405180910390a15050565b60008060003373ffffffffffffffffffffffffffffffffffffffff1673ffffffffffffffffffffffffffffffffffffffff16815260200190815260200160002090506000341180156109de575060008160020154145b6109e757600080fd5b348160020181905550338160000160006101000a81548173ffffffffffffffffffffffffffffffffffffffff021916908373ffffffffffffffffffffffffffffffffffffffff1602179055506000600160003373ffffffffffffffffffffffffffffffffffffffff1673ffffffffffffffffffffffffffffffffffffffff168152602001908152602001600020905060018160000160008282829054906101000a900461ffff16610a989190610cc4565b92506101000a81548161ffff021916908361ffff160217905550338160000160086101000a81548173ffffffffffffffffffffffffffffffffffffffff021916908373ffffffffffffffffffffffffffffffffffffffff1602179055507f0ce3610e89a4bb9ec9359763f99110ed52a4abaea0b62028a1637e242ca2768b338360020154604051610b2a929190610e59565b60405180910390a15050565b600080fd5b600073ffffffffffffffffffffffffffffffffffffffff82169050919050565b6000610b6682610b3b565b9050919050565b610b7681610b5b565b8114610b8157600080fd5b50565b600081359050610b9381610b6d565b92915050565b600060208284031215610baf57610bae610b36565b5b6000610bbd84828501610b84565b91505092915050565b600061ffff82169050919050565b610bdd81610bc6565b82525050565b610bec81610b5b565b82525050565b600060a082019050610c076000830188610bd4565b610c146020830187610bd4565b610c216040830186610bd4565b610c2e6060830185610bd4565b610c3b6080830184610be3565b9695505050505050565b6000819050919050565b610c5881610c45565b82525050565b6000606082019050610c736000830186610be3565b610c806020830185610be3565b610c8d6040830184610c4f565b949350505050565b7f4e487b7100000000000000000000000000000000000000000000000000000000600052601160045260246000fd5b6000610ccf82610bc6565b9150610cda83610bc6565b92508261ffff03821115610cf157610cf0610c95565b5b828201905092915050565b6000610d0782610c45565b9150610d1283610c45565b9250817fffffffffffffffffffffffffffffffffffffffffffffffffffffffffffffffff0483118215151615610d4b57610d4a610c95565b5b828202905092915050565b600081905092915050565b50565b6000610d71600083610d56565b9150610d7c82610d61565b600082019050919050565b6000610d9282610d64565b9150819050919050565b6000608082019050610db16000830187610be3565b610dbe6020830186610be3565b610dcb6040830185610be3565b610dd86060830184610c4f565b95945050505050565b6000604082019050610df66000830185610be3565b610e036020830184610be3565b9392505050565b6000610e1582610bc6565b9150610e2083610bc6565b925082821015610e3357610e32610c95565b5b828203905092915050565b6000602082019050610e536000830184610be3565b92915050565b6000604082019050610e6e6000830185610be3565b610e7b6020830184610c4f565b939250505056fea2646970667358221220014a1bc091ca10a99ab46b97c0b36969cc7862973da66a6169707dbdfff2507f64736f6c634300080e0033",
  "immutableReferences": {},
  "source": "// SPDX-License-Identifier: MIT\npragma solidity >=0.4.22 <0.9.0;\n\ncontract TicTacToe {\n\n  event Created(address host, uint bet);\n  event Cancelled(address host);\n  event Started(address host, address visitor);\n  event Move(address host, address author, uint[2] coords);\n  event Squared(address host, address visitor, address winner, uint bet);\n\n  struct Game {\n    address host;\n    address visitor;\n    uint bet;\n  }\n\n  struct Status {\n    uint16 created;\n    uint16 won;\n    uint16 lost;\n    uint16 tie;\n    address current;\n  }\n\n  mapping (address=>Game) public games;\n\n  mapping (address=>Status) public status;\n\n  function create() public payable {\n    Game storage game = games[msg.sender];\n    // Requires a bet value and cancels if this player has already planned a game.\n    require(msg.value > 0 && game.bet == 0);\n    game.bet = msg.value;\n    game.host = msg.sender;\n    Status storage player = status[msg.sender];\n    player.created += 1;\n    player.current = msg.sender;\n    emit Created(msg.sender, game.bet);\n  }\n\n  function cancel() public {\n    Game storage game = games[msg.sender];\n    require(game.bet > 0 && game.visitor == address(0));\n    Status storage player = status[msg.sender];\n    // The require above should ensure that player.created > 0, and prevent underflow.\n    player.created -= 1;\n    player.current = address(0);\n    // Recharge user.\n    msg.sender.call{value: game.bet}(\"\");\n    game.bet = 0;\n    emit Cancelled(msg.sender);\n  }\n\n  function join(address host) public payable {\n    Game storage game = games[host];\n    Status storage player = status[msg.sender];\n    // Bets must be identical, addresses must be different, visitor must have no current game.\n    require(msg.value == game.bet && msg.sender != host && player.current == address(0));\n    game.visitor = msg.sender;\n    player.current = host;\n    emit Started(host, msg.sender);\n  }\n\n  function claim(address host) public {\n    Game storage game = games[host];\n    require(game.bet > 0);\n    if(msg.sender != host){\n      Status storage loser = status[host];\n      loser.lost += 1;\n      loser.current = address(0);\n    }\n    Status storage winner = status[msg.sender];\n    msg.sender.call{value: game.bet * 2}(\"\");\n    emit Squared(host, game.visitor, msg.sender, game.bet);\n    game.bet = 0;\n    game.visitor = address(0);\n    winner.won += 1;\n    winner.current = address(0);\n  }\n}\n",
  "sourcePath": "/home/astrahasis/Dokumente/dev/DeTacToe/contracts/TicTacToe.sol",
  "compiler": {
    "name": "solc",
    "version": "0.8.14+commit.80d49f37.Emscripten.clang"
  },
  "schemaVersion": "3.4.7",
  "updatedAt": "2022-06-29T12:29:12.646Z",
  "networkType": "ethereum",
  "devdoc": {
    "kind": "dev",
    "methods": {},
    "version": 1
  },
  "userdoc": {
    "kind": "user",
    "methods": {},
    "version": 1
  }
}