{
  "contractName": "TicTacToe",
  "abi": [
    {
      "anonymous": false,
      "inputs": [
        {
          "indexed": false,
          "internalType": "address",
          "name": "host",
          "type": "address"
        },
        {
          "indexed": false,
          "internalType": "uint256",
          "name": "bet",
          "type": "uint256"
        }
      ],
      "name": "Created",
      "type": "event"
    },
    {
      "anonymous": false,
      "inputs": [
        {
          "indexed": false,
          "internalType": "address",
          "name": "host",
          "type": "address"
        },
        {
          "indexed": false,
          "internalType": "address",
          "name": "visitor",
          "type": "address"
        },
        {
          "indexed": false,
          "internalType": "uint256",
          "name": "bet",
          "type": "uint256"
        }
      ],
      "name": "Started",
      "type": "event"
    },
    {
      "inputs": [],
      "name": "create",
      "outputs": [
        {
          "internalType": "uint256",
          "name": "balance",
          "type": "uint256"
        }
      ],
      "stateMutability": "payable",
      "type": "function",
      "payable": true
    },
    {
      "inputs": [
        {
          "internalType": "address",
          "name": "host",
          "type": "address"
        }
      ],
      "name": "join",
      "outputs": [],
      "stateMutability": "payable",
      "type": "function",
      "payable": true
    },
    {
      "inputs": [
        {
          "internalType": "address",
          "name": "host",
          "type": "address"
        }
      ],
      "name": "claim",
      "outputs": [],
      "stateMutability": "nonpayable",
      "type": "function"
    }
  ],
  "bytecode": "0x608060405234801561001057600080fd5b50610509806100206000396000f3fe6080604052600436106100345760003560e01c80631e83409a1461003957806328ffe6c814610062578063efc81a8c1461007e575b600080fd5b34801561004557600080fd5b50610060600480360381019061005b919061037e565b61009c565b005b61007c6004803603810190610077919061037e565b61018b565b005b61008661027e565b60405161009391906103c4565b60405180910390f35b60008060008373ffffffffffffffffffffffffffffffffffffffff1673ffffffffffffffffffffffffffffffffffffffff16815260200190815260200160002060010154116100ea57600080fd5b3373ffffffffffffffffffffffffffffffffffffffff166000808373ffffffffffffffffffffffffffffffffffffffff1673ffffffffffffffffffffffffffffffffffffffff168152602001908152602001600020505060008060008373ffffffffffffffffffffffffffffffffffffffff1673ffffffffffffffffffffffffffffffffffffffff1681526020019081526020016000206001018190555050565b60008060008373ffffffffffffffffffffffffffffffffffffffff1673ffffffffffffffffffffffffffffffffffffffff1681526020019081526020016000209050806001015434146101dd57600080fd5b348160010160008282546101f1919061040e565b92505081905550338160000160006101000a81548173ffffffffffffffffffffffffffffffffffffffff021916908373ffffffffffffffffffffffffffffffffffffffff1602179055507ff9fc8619f47185576c57bcb55a726e87aedd0c97599424af8325993da54083208233836001015460405161027293929190610473565b60405180910390a15050565b600080341161028c57600080fd5b60008060003373ffffffffffffffffffffffffffffffffffffffff1673ffffffffffffffffffffffffffffffffffffffff16815260200190815260200160002090503481600101819055507f0ce3610e89a4bb9ec9359763f99110ed52a4abaea0b62028a1637e242ca2768b33826001015460405161030c9291906104aa565b60405180910390a14791505090565b600080fd5b600073ffffffffffffffffffffffffffffffffffffffff82169050919050565b600061034b82610320565b9050919050565b61035b81610340565b811461036657600080fd5b50565b60008135905061037881610352565b92915050565b6000602082840312156103945761039361031b565b5b60006103a284828501610369565b91505092915050565b6000819050919050565b6103be816103ab565b82525050565b60006020820190506103d960008301846103b5565b92915050565b7f4e487b7100000000000000000000000000000000000000000000000000000000600052601160045260246000fd5b6000610419826103ab565b9150610424836103ab565b9250827fffffffffffffffffffffffffffffffffffffffffffffffffffffffffffffffff03821115610459576104586103df565b5b828201905092915050565b61046d81610340565b82525050565b60006060820190506104886000830186610464565b6104956020830185610464565b6104a260408301846103b5565b949350505050565b60006040820190506104bf6000830185610464565b6104cc60208301846103b5565b939250505056fea2646970667358221220f6631e75f5534ee5fb5153a033334bee476ab392d4a5733121c9ef4132e7af4e64736f6c634300080e0033",
  "immutableReferences": {},
  "source": "// SPDX-License-Identifier: MIT\npragma solidity >=0.4.22 <0.9.0;\n\ncontract TicTacToe {\n\n  event Created(address host, uint bet);\n  event Started(address host, address visitor, uint bet);\n\n  struct Game {\n    address visitor;\n    uint balance;\n  }\n\n  mapping (address=>Game) games;\n\n  function create() public payable returns (uint balance){\n    require(msg.value > 0);\n    Game storage g = games[msg.sender];\n    g.balance = msg.value;\n    emit Created(msg.sender, g.balance);\n    return address(this).balance;\n  }\n\n  function join(address host) public payable {\n    Game storage g = games[host];\n    require(msg.value == g.balance);\n    g.balance += msg.value;\n    g.visitor = msg.sender;\n    emit Started(host, msg.sender, g.balance);\n  }\n\n  function claim(address host) public {\n    require(games[host].balance > 0);\n    msg.sender.call{value: games[host].balance};\n    games[host].balance = 0;\n  }\n}\n",
  "sourcePath": "/home/astrahasis/Dokumente/dev/DeTacToe/contracts/TicTacToe.sol",
  "compiler": {
    "name": "solc",
    "version": "0.8.14+commit.80d49f37.Emscripten.clang"
  },
  "schemaVersion": "3.4.7",
  "updatedAt": "2022-06-27T14:32:27.463Z",
  "networkType": "ethereum",
  "devdoc": {
    "kind": "dev",
    "methods": {},
    "version": 1
  },
  "userdoc": {
    "kind": "user",
    "methods": {},
    "version": 1
  }
}