{
  "contractName": "TicTacToe",
  "abi": [
    {
      "anonymous": false,
      "inputs": [
        {
          "indexed": false,
          "internalType": "address",
          "name": "host",
          "type": "address"
        },
        {
          "indexed": false,
          "internalType": "uint256",
          "name": "bet",
          "type": "uint256"
        }
      ],
      "name": "Created",
      "type": "event"
    },
    {
      "anonymous": false,
      "inputs": [
        {
          "indexed": false,
          "internalType": "address",
          "name": "host",
          "type": "address"
        }
      ],
      "name": "Started",
      "type": "event"
    },
    {
      "inputs": [],
      "name": "create",
      "outputs": [
        {
          "internalType": "uint256",
          "name": "balance",
          "type": "uint256"
        }
      ],
      "stateMutability": "payable",
      "type": "function",
      "payable": true
    },
    {
      "inputs": [
        {
          "internalType": "address",
          "name": "host",
          "type": "address"
        }
      ],
      "name": "join",
      "outputs": [],
      "stateMutability": "payable",
      "type": "function",
      "payable": true
    },
    {
      "inputs": [
        {
          "internalType": "address payable",
          "name": "host",
          "type": "address"
        }
      ],
      "name": "claim",
      "outputs": [],
      "stateMutability": "payable",
      "type": "function",
      "payable": true
    }
  ],
  "bytecode": "0x608060405234801561001057600080fd5b50610543806100206000396000f3fe6080604052600436106100345760003560e01c80631e83409a1461003957806328ffe6c814610055578063efc81a8c14610071575b600080fd5b610053600480360381019061004e9190610369565b61008f565b005b61006f600480360381019061006a91906103d4565b61017e565b005b610079610269565b604051610086919061041a565b60405180910390f35b60008060008373ffffffffffffffffffffffffffffffffffffffff1673ffffffffffffffffffffffffffffffffffffffff16815260200190815260200160002060010154116100dd57600080fd5b3373ffffffffffffffffffffffffffffffffffffffff166000808373ffffffffffffffffffffffffffffffffffffffff1673ffffffffffffffffffffffffffffffffffffffff168152602001908152602001600020505060008060008373ffffffffffffffffffffffffffffffffffffffff1673ffffffffffffffffffffffffffffffffffffffff1681526020019081526020016000206001018190555050565b60008060008373ffffffffffffffffffffffffffffffffffffffff1673ffffffffffffffffffffffffffffffffffffffff1681526020019081526020016000209050806001015434146101d057600080fd5b348160010160008282546101e49190610464565b92505081905550338160000160006101000a81548173ffffffffffffffffffffffffffffffffffffffff021916908373ffffffffffffffffffffffffffffffffffffffff1602179055507f27029695aa5f602a4ee81f4c32dfa86e562f200a17966496f3a7c3f2ec0f94178260405161025d91906104c9565b60405180910390a15050565b600080341161027757600080fd5b60008060003373ffffffffffffffffffffffffffffffffffffffff1673ffffffffffffffffffffffffffffffffffffffff16815260200190815260200160002090503481600101819055507f0ce3610e89a4bb9ec9359763f99110ed52a4abaea0b62028a1637e242ca2768b3382600101546040516102f79291906104e4565b60405180910390a14791505090565b600080fd5b600073ffffffffffffffffffffffffffffffffffffffff82169050919050565b60006103368261030b565b9050919050565b6103468161032b565b811461035157600080fd5b50565b6000813590506103638161033d565b92915050565b60006020828403121561037f5761037e610306565b5b600061038d84828501610354565b91505092915050565b60006103a18261030b565b9050919050565b6103b181610396565b81146103bc57600080fd5b50565b6000813590506103ce816103a8565b92915050565b6000602082840312156103ea576103e9610306565b5b60006103f8848285016103bf565b91505092915050565b6000819050919050565b61041481610401565b82525050565b600060208201905061042f600083018461040b565b92915050565b7f4e487b7100000000000000000000000000000000000000000000000000000000600052601160045260246000fd5b600061046f82610401565b915061047a83610401565b9250827fffffffffffffffffffffffffffffffffffffffffffffffffffffffffffffffff038211156104af576104ae610435565b5b828201905092915050565b6104c381610396565b82525050565b60006020820190506104de60008301846104ba565b92915050565b60006040820190506104f960008301856104ba565b610506602083018461040b565b939250505056fea26469706673582212207b37a316f12fae42bbf3bd5603a2394e9b0cd1339d96c84c5ad32a1ee9f6fc6464736f6c634300080e0033",
  "immutableReferences": {},
  "source": "// SPDX-License-Identifier: MIT\npragma solidity >=0.4.22 <0.9.0;\n\ncontract TicTacToe {\n\n  event Created(address host, uint bet);\n  event Started(address host);\n\n  struct Game {\n    address visitor;\n    uint balance;\n  }\n\n  mapping (address=>Game) games;\n\n  function create() public payable returns (uint balance){\n    require(msg.value > 0);\n    Game storage g = games[msg.sender];\n    g.balance = msg.value;\n    emit Created(msg.sender, g.balance);\n    return address(this).balance;\n  }\n\n  function join(address host) public payable {\n    Game storage g = games[host];\n    require(msg.value == g.balance);\n    g.balance += msg.value;\n    g.visitor = msg.sender;\n    emit Started(host);\n  }\n\n  function claim(address payable host) public payable{\n    require(games[host].balance > 0);\n    msg.sender.call{value: games[host].balance};\n    games[host].balance = 0;\n  }\n}\n",
  "sourcePath": "/home/astrahasis/Dokumente/dev/DeTacToe/contracts/TicTacToe.sol",
  "compiler": {
    "name": "solc",
    "version": "0.8.14+commit.80d49f37.Emscripten.clang"
  },
  "schemaVersion": "3.4.7",
  "updatedAt": "2022-06-27T10:25:20.063Z",
  "networkType": "ethereum",
  "devdoc": {
    "kind": "dev",
    "methods": {},
    "version": 1
  },
  "userdoc": {
    "kind": "user",
    "methods": {},
    "version": 1
  }
}