{
  "contractName": "TicTacToe",
  "abi": [
    {
      "anonymous": false,
      "inputs": [
        {
          "indexed": false,
          "internalType": "address",
          "name": "host",
          "type": "address"
        },
        {
          "indexed": false,
          "internalType": "uint256",
          "name": "bet",
          "type": "uint256"
        }
      ],
      "name": "Created",
      "type": "event"
    },
    {
      "anonymous": false,
      "inputs": [
        {
          "indexed": false,
          "internalType": "address",
          "name": "host",
          "type": "address"
        },
        {
          "indexed": false,
          "internalType": "address",
          "name": "winner",
          "type": "address"
        }
      ],
      "name": "Squared",
      "type": "event"
    },
    {
      "anonymous": false,
      "inputs": [
        {
          "indexed": false,
          "internalType": "address",
          "name": "host",
          "type": "address"
        },
        {
          "indexed": false,
          "internalType": "address",
          "name": "visitor",
          "type": "address"
        },
        {
          "indexed": false,
          "internalType": "uint256",
          "name": "bet",
          "type": "uint256"
        }
      ],
      "name": "Started",
      "type": "event"
    },
    {
      "inputs": [
        {
          "internalType": "address",
          "name": "",
          "type": "address"
        }
      ],
      "name": "games",
      "outputs": [
        {
          "internalType": "address",
          "name": "host",
          "type": "address"
        },
        {
          "internalType": "address",
          "name": "visitor",
          "type": "address"
        },
        {
          "internalType": "uint256",
          "name": "balance",
          "type": "uint256"
        }
      ],
      "stateMutability": "view",
      "type": "function",
      "constant": true
    },
    {
      "inputs": [],
      "name": "create",
      "outputs": [
        {
          "internalType": "uint256",
          "name": "balance",
          "type": "uint256"
        }
      ],
      "stateMutability": "payable",
      "type": "function",
      "payable": true
    },
    {
      "inputs": [
        {
          "internalType": "address",
          "name": "host",
          "type": "address"
        }
      ],
      "name": "join",
      "outputs": [],
      "stateMutability": "payable",
      "type": "function",
      "payable": true
    },
    {
      "inputs": [
        {
          "internalType": "address",
          "name": "host",
          "type": "address"
        }
      ],
      "name": "claim",
      "outputs": [],
      "stateMutability": "nonpayable",
      "type": "function"
    }
  ],
  "bytecode": "0x608060405234801561001057600080fd5b50610672806100206000396000f3fe60806040526004361061003f5760003560e01c80631e83409a1461004457806328ffe6c81461006d57806379131a1914610089578063efc81a8c146100c8575b600080fd5b34801561005057600080fd5b5061006b600480360381019061006691906104be565b6100e6565b005b610087600480360381019061008291906104be565b61020e565b005b34801561009557600080fd5b506100b060048036038101906100ab91906104be565b610301565b6040516100bf93929190610513565b60405180910390f35b6100d061036b565b6040516100dd919061054a565b60405180910390f35b60008060008373ffffffffffffffffffffffffffffffffffffffff1673ffffffffffffffffffffffffffffffffffffffff168152602001908152602001600020600201541161013457600080fd5b3373ffffffffffffffffffffffffffffffffffffffff166000808373ffffffffffffffffffffffffffffffffffffffff1673ffffffffffffffffffffffffffffffffffffffff168152602001908152602001600020505060008060008373ffffffffffffffffffffffffffffffffffffffff1673ffffffffffffffffffffffffffffffffffffffff168152602001908152602001600020600201819055507fdec61306f8c06056f59250c479f1811f7bf942e0252e6062900abe8b93681bb28133604051610203929190610565565b60405180910390a150565b60008060008373ffffffffffffffffffffffffffffffffffffffff1673ffffffffffffffffffffffffffffffffffffffff16815260200190815260200160002090508060020154341461026057600080fd5b3481600201600082825461027491906105bd565b92505081905550338160010160006101000a81548173ffffffffffffffffffffffffffffffffffffffff021916908373ffffffffffffffffffffffffffffffffffffffff1602179055507ff9fc8619f47185576c57bcb55a726e87aedd0c97599424af8325993da5408320823383600201546040516102f593929190610513565b60405180910390a15050565b60006020528060005260406000206000915090508060000160009054906101000a900473ffffffffffffffffffffffffffffffffffffffff16908060010160009054906101000a900473ffffffffffffffffffffffffffffffffffffffff16908060020154905083565b6000806000803373ffffffffffffffffffffffffffffffffffffffff1673ffffffffffffffffffffffffffffffffffffffff16815260200190815260200160002090506000341180156103c2575060008160020154145b6103cb57600080fd5b348160020181905550338160000160006101000a81548173ffffffffffffffffffffffffffffffffffffffff021916908373ffffffffffffffffffffffffffffffffffffffff1602179055507f0ce3610e89a4bb9ec9359763f99110ed52a4abaea0b62028a1637e242ca2768b33826002015460405161044c929190610613565b60405180910390a14791505090565b600080fd5b600073ffffffffffffffffffffffffffffffffffffffff82169050919050565b600061048b82610460565b9050919050565b61049b81610480565b81146104a657600080fd5b50565b6000813590506104b881610492565b92915050565b6000602082840312156104d4576104d361045b565b5b60006104e2848285016104a9565b91505092915050565b6104f481610480565b82525050565b6000819050919050565b61050d816104fa565b82525050565b600060608201905061052860008301866104eb565b61053560208301856104eb565b6105426040830184610504565b949350505050565b600060208201905061055f6000830184610504565b92915050565b600060408201905061057a60008301856104eb565b61058760208301846104eb565b9392505050565b7f4e487b7100000000000000000000000000000000000000000000000000000000600052601160045260246000fd5b60006105c8826104fa565b91506105d3836104fa565b9250827fffffffffffffffffffffffffffffffffffffffffffffffffffffffffffffffff038211156106085761060761058e565b5b828201905092915050565b600060408201905061062860008301856104eb565b6106356020830184610504565b939250505056fea2646970667358221220973e91f1fd9923b0048fcfd5cef7e7b61e9183fc3dea84ee7c21023d052cee0264736f6c634300080e0033",
  "immutableReferences": {},
  "source": "// SPDX-License-Identifier: MIT\npragma solidity >=0.4.22 <0.9.0;\n\ncontract TicTacToe {\n\n  event Created(address host, uint bet);\n  event Started(address host, address visitor, uint bet);\n  event Squared(address host, address winner);\n\n  struct Game {\n    address host;\n    address visitor;\n    uint balance;\n  }\n\n  mapping (address=>Game) public games;\n\n  function create() public payable returns (uint balance){\n    Game storage g = games[msg.sender];\n    // Requires a bet value and cancels if this player has already planned a game.\n    require(msg.value > 0 && g.balance == 0);\n    g.balance = msg.value;\n    g.host = msg.sender;\n    emit Created(msg.sender, g.balance);\n    return address(this).balance;\n  }\n\n  function join(address host) public payable {\n    Game storage g = games[host];\n    require(msg.value == g.balance);\n    g.balance += msg.value;\n    g.visitor = msg.sender;\n    emit Started(host, msg.sender, g.balance);\n  }\n\n  function claim(address host) public {\n    require(games[host].balance > 0);\n    msg.sender.call{value: games[host].balance};\n    games[host].balance = 0;\n    emit Squared(host, msg.sender);\n  }\n}\n",
  "sourcePath": "/home/astrahasis/Dokumente/dev/DeTacToe/contracts/TicTacToe.sol",
  "compiler": {
    "name": "solc",
    "version": "0.8.14+commit.80d49f37.Emscripten.clang"
  },
  "schemaVersion": "3.4.7",
  "updatedAt": "2022-06-27T19:39:19.125Z",
  "networkType": "ethereum",
  "devdoc": {
    "kind": "dev",
    "methods": {},
    "version": 1
  },
  "userdoc": {
    "kind": "user",
    "methods": {},
    "version": 1
  }
}