{
  "contractName": "TicTacToe",
  "abi": [
    {
      "anonymous": false,
      "inputs": [
        {
          "indexed": false,
          "internalType": "address",
          "name": "host",
          "type": "address"
        },
        {
          "indexed": false,
          "internalType": "uint256",
          "name": "bet",
          "type": "uint256"
        }
      ],
      "name": "Created",
      "type": "event"
    },
    {
      "anonymous": false,
      "inputs": [
        {
          "indexed": false,
          "internalType": "address",
          "name": "host",
          "type": "address"
        },
        {
          "indexed": false,
          "internalType": "address",
          "name": "visitor",
          "type": "address"
        },
        {
          "indexed": false,
          "internalType": "bool",
          "name": "draw",
          "type": "bool"
        },
        {
          "indexed": false,
          "internalType": "address",
          "name": "winner",
          "type": "address"
        },
        {
          "indexed": false,
          "internalType": "uint256",
          "name": "bet",
          "type": "uint256"
        }
      ],
      "name": "Squared",
      "type": "event"
    },
    {
      "anonymous": false,
      "inputs": [
        {
          "indexed": false,
          "internalType": "address",
          "name": "host",
          "type": "address"
        },
        {
          "indexed": false,
          "internalType": "address",
          "name": "visitor",
          "type": "address"
        },
        {
          "indexed": false,
          "internalType": "uint256",
          "name": "bet",
          "type": "uint256"
        }
      ],
      "name": "Started",
      "type": "event"
    },
    {
      "inputs": [
        {
          "internalType": "address",
          "name": "",
          "type": "address"
        }
      ],
      "name": "games",
      "outputs": [
        {
          "internalType": "address",
          "name": "host",
          "type": "address"
        },
        {
          "internalType": "address",
          "name": "visitor",
          "type": "address"
        },
        {
          "internalType": "uint256",
          "name": "bet",
          "type": "uint256"
        }
      ],
      "stateMutability": "view",
      "type": "function",
      "constant": true
    },
    {
      "inputs": [],
      "name": "create",
      "outputs": [],
      "stateMutability": "payable",
      "type": "function",
      "payable": true
    },
    {
      "inputs": [
        {
          "internalType": "address",
          "name": "host",
          "type": "address"
        }
      ],
      "name": "join",
      "outputs": [],
      "stateMutability": "payable",
      "type": "function",
      "payable": true
    },
    {
      "inputs": [
        {
          "internalType": "address",
          "name": "host",
          "type": "address"
        }
      ],
      "name": "claim",
      "outputs": [],
      "stateMutability": "nonpayable",
      "type": "function"
    }
  ],
  "bytecode": "0x608060405234801561001057600080fd5b50610639806100206000396000f3fe60806040526004361061003f5760003560e01c80631e83409a1461004457806328ffe6c81461006d57806379131a1914610089578063efc81a8c146100c8575b600080fd5b34801561005057600080fd5b5061006b60048036038101906100669190610457565b6100d2565b005b61008760048036038101906100829190610457565b6101c7565b005b34801561009557600080fd5b506100b060048036038101906100ab9190610457565b61029f565b6040516100bf939291906104ac565b60405180910390f35b6100d0610309565b005b60008060008373ffffffffffffffffffffffffffffffffffffffff1673ffffffffffffffffffffffffffffffffffffffff1681526020019081526020016000209050600081600201541161012557600080fd5b3373ffffffffffffffffffffffffffffffffffffffff166002826002015461014d9190610512565b50506000816002018190555060007fa175a375c53d67c3c24bb42cd569319f3db168540eaa37327ace97f471a44d4c838360010160009054906101000a900473ffffffffffffffffffffffffffffffffffffffff16833386600201546040516101ba959493929190610587565b60405180910390a1505050565b60008060008373ffffffffffffffffffffffffffffffffffffffff1673ffffffffffffffffffffffffffffffffffffffff16815260200190815260200160002090508060020154341461021957600080fd5b338160010160006101000a81548173ffffffffffffffffffffffffffffffffffffffff021916908373ffffffffffffffffffffffffffffffffffffffff1602179055507ff9fc8619f47185576c57bcb55a726e87aedd0c97599424af8325993da540832082338360020154604051610293939291906104ac565b60405180910390a15050565b60006020528060005260406000206000915090508060000160009054906101000a900473ffffffffffffffffffffffffffffffffffffffff16908060010160009054906101000a900473ffffffffffffffffffffffffffffffffffffffff16908060020154905083565b60008060003373ffffffffffffffffffffffffffffffffffffffff1673ffffffffffffffffffffffffffffffffffffffff168152602001908152602001600020905060003411801561035f575060008160020154145b61036857600080fd5b348160020181905550338160000160006101000a81548173ffffffffffffffffffffffffffffffffffffffff021916908373ffffffffffffffffffffffffffffffffffffffff1602179055507f0ce3610e89a4bb9ec9359763f99110ed52a4abaea0b62028a1637e242ca2768b3382600201546040516103e99291906105da565b60405180910390a150565b600080fd5b600073ffffffffffffffffffffffffffffffffffffffff82169050919050565b6000610424826103f9565b9050919050565b61043481610419565b811461043f57600080fd5b50565b6000813590506104518161042b565b92915050565b60006020828403121561046d5761046c6103f4565b5b600061047b84828501610442565b91505092915050565b61048d81610419565b82525050565b6000819050919050565b6104a681610493565b82525050565b60006060820190506104c16000830186610484565b6104ce6020830185610484565b6104db604083018461049d565b949350505050565b7f4e487b7100000000000000000000000000000000000000000000000000000000600052601160045260246000fd5b600061051d82610493565b915061052883610493565b9250817fffffffffffffffffffffffffffffffffffffffffffffffffffffffffffffffff0483118215151615610561576105606104e3565b5b828202905092915050565b60008115159050919050565b6105818161056c565b82525050565b600060a08201905061059c6000830188610484565b6105a96020830187610484565b6105b66040830186610578565b6105c36060830185610484565b6105d0608083018461049d565b9695505050505050565b60006040820190506105ef6000830185610484565b6105fc602083018461049d565b939250505056fea2646970667358221220e3d815362b3790667f95b1a4cd83e84be83a0313683a03fc1c5f05c5ca6035d164736f6c634300080e0033",
  "immutableReferences": {},
  "source": "// SPDX-License-Identifier: MIT\npragma solidity >=0.4.22 <0.9.0;\n\ncontract TicTacToe {\n\n  event Created(address host, uint bet);\n  event Started(address host, address visitor, uint bet);\n  event Squared(address host, address visitor, bool draw, address winner, uint bet);\n\n  struct Game {\n    address host;\n    address visitor;\n    uint bet;\n  }\n\n  mapping (address=>Game) public games;\n\n  function create() public payable {\n    Game storage g = games[msg.sender];\n    // Requires a bet value and cancels if this player has already planned a game.\n    require(msg.value > 0 && g.bet == 0);\n    g.bet = msg.value;\n    g.host = msg.sender;\n    emit Created(msg.sender, g.bet);\n  }\n\n  function join(address host) public payable {\n    Game storage g = games[host];\n    // Bets must be identical\n    require(msg.value == g.bet);\n    g.visitor = msg.sender;\n    emit Started(host, msg.sender, g.bet);\n  }\n\n  function claim(address host) public {\n    Game storage g = games[host];\n    require(g.bet > 0);\n    msg.sender.call{value: g.bet * 2};\n    g.bet = 0;\n    bool isDraw = false;\n    emit Squared(host, g.visitor, isDraw, msg.sender, g.bet);\n  }\n}\n",
  "sourcePath": "/home/astrahasis/Dokumente/dev/DeTacToe/contracts/TicTacToe.sol",
  "compiler": {
    "name": "solc",
    "version": "0.8.14+commit.80d49f37.Emscripten.clang"
  },
  "schemaVersion": "3.4.7",
  "updatedAt": "2022-06-28T09:12:41.058Z",
  "networkType": "ethereum",
  "devdoc": {
    "kind": "dev",
    "methods": {},
    "version": 1
  },
  "userdoc": {
    "kind": "user",
    "methods": {},
    "version": 1
  }
}