{
  "contractName": "TicTacToe",
  "abi": [
    {
      "anonymous": false,
      "inputs": [
        {
          "indexed": false,
          "internalType": "address",
          "name": "host",
          "type": "address"
        }
      ],
      "name": "Cancelled",
      "type": "event"
    },
    {
      "anonymous": false,
      "inputs": [
        {
          "indexed": false,
          "internalType": "address",
          "name": "host",
          "type": "address"
        },
        {
          "indexed": false,
          "internalType": "uint256",
          "name": "bet",
          "type": "uint256"
        }
      ],
      "name": "Created",
      "type": "event"
    },
    {
      "anonymous": false,
      "inputs": [
        {
          "indexed": false,
          "internalType": "address",
          "name": "host",
          "type": "address"
        },
        {
          "indexed": false,
          "internalType": "address",
          "name": "author",
          "type": "address"
        },
        {
          "indexed": false,
          "internalType": "uint256",
          "name": "coords",
          "type": "uint256"
        }
      ],
      "name": "Move",
      "type": "event"
    },
    {
      "anonymous": false,
      "inputs": [
        {
          "indexed": false,
          "internalType": "address",
          "name": "host",
          "type": "address"
        },
        {
          "indexed": false,
          "internalType": "address",
          "name": "visitor",
          "type": "address"
        },
        {
          "indexed": false,
          "internalType": "address",
          "name": "winner",
          "type": "address"
        },
        {
          "indexed": false,
          "internalType": "uint256",
          "name": "bet",
          "type": "uint256"
        }
      ],
      "name": "Squared",
      "type": "event"
    },
    {
      "anonymous": false,
      "inputs": [
        {
          "indexed": false,
          "internalType": "address",
          "name": "host",
          "type": "address"
        },
        {
          "indexed": false,
          "internalType": "address",
          "name": "visitor",
          "type": "address"
        }
      ],
      "name": "Started",
      "type": "event"
    },
    {
      "inputs": [
        {
          "internalType": "address",
          "name": "",
          "type": "address"
        }
      ],
      "name": "games",
      "outputs": [
        {
          "internalType": "address",
          "name": "host",
          "type": "address"
        },
        {
          "internalType": "address",
          "name": "visitor",
          "type": "address"
        },
        {
          "internalType": "uint256",
          "name": "bet",
          "type": "uint256"
        },
        {
          "internalType": "bool",
          "name": "hostTurn",
          "type": "bool"
        }
      ],
      "stateMutability": "view",
      "type": "function",
      "constant": true
    },
    {
      "inputs": [
        {
          "internalType": "address",
          "name": "",
          "type": "address"
        }
      ],
      "name": "status",
      "outputs": [
        {
          "internalType": "uint16",
          "name": "created",
          "type": "uint16"
        },
        {
          "internalType": "uint16",
          "name": "won",
          "type": "uint16"
        },
        {
          "internalType": "uint16",
          "name": "lost",
          "type": "uint16"
        },
        {
          "internalType": "uint16",
          "name": "tie",
          "type": "uint16"
        },
        {
          "internalType": "address",
          "name": "current",
          "type": "address"
        }
      ],
      "stateMutability": "view",
      "type": "function",
      "constant": true
    },
    {
      "inputs": [
        {
          "internalType": "address",
          "name": "host",
          "type": "address"
        }
      ],
      "name": "getGame",
      "outputs": [
        {
          "internalType": "address[9]",
          "name": "",
          "type": "address[9]"
        }
      ],
      "stateMutability": "view",
      "type": "function",
      "constant": true
    },
    {
      "inputs": [
        {
          "internalType": "address",
          "name": "host",
          "type": "address"
        },
        {
          "internalType": "uint256",
          "name": "cell",
          "type": "uint256"
        }
      ],
      "name": "move",
      "outputs": [],
      "stateMutability": "nonpayable",
      "type": "function"
    },
    {
      "inputs": [],
      "name": "create",
      "outputs": [],
      "stateMutability": "payable",
      "type": "function",
      "payable": true
    },
    {
      "inputs": [],
      "name": "cancel",
      "outputs": [],
      "stateMutability": "nonpayable",
      "type": "function"
    },
    {
      "inputs": [
        {
          "internalType": "address",
          "name": "host",
          "type": "address"
        }
      ],
      "name": "join",
      "outputs": [],
      "stateMutability": "payable",
      "type": "function",
      "payable": true
    }
  ],
  "bytecode": "0x60806040526040518061010001604052806040518060600160405280600060ff168152602001600160ff168152602001600260ff1681525081526020016040518060600160405280600360ff168152602001600460ff168152602001600560ff1681525081526020016040518060600160405280600660ff168152602001600760ff168152602001600860ff1681525081526020016040518060600160405280600060ff168152602001600360ff168152602001600660ff1681525081526020016040518060600160405280600160ff168152602001600460ff168152602001600760ff1681525081526020016040518060600160405280600260ff168152602001600560ff168152602001600860ff1681525081526020016040518060600160405280600060ff168152602001600460ff168152602001600860ff1681525081526020016040518060600160405280600260ff168152602001600460ff168152602001600660ff1681525081525060009060086200018092919062000195565b503480156200018e57600080fd5b50620002b8565b828054828255906000526020600020908101928215620001e4579160200282015b82811115620001e357825182906003620001d2929190620001f7565b5091602001919060010190620001b6565b5b509050620001f391906200024e565b5090565b8280548282559060005260206000209081019282156200023b579160200282015b828111156200023a578251829060ff1690559160200191906001019062000218565b5b5090506200024a919062000276565b5090565b5b8082111562000272576000818162000268919062000295565b506001016200024f565b5090565b5b808211156200029157600081600090555060010162000277565b5090565b5080546000825590600052602060002090810190620002b5919062000276565b50565b611ed080620002c86000396000f3fe6080604052600436106100705760003560e01c80638d1a4b281161004e5780638d1a4b2814610112578063987ff31c1461014f578063ea8a1af014610178578063efc81a8c1461018f57610070565b806328ffe6c814610075578063645b8b1b1461009157806379131a19146100d2575b600080fd5b61008f600480360381019061008a91906119a7565b610199565b005b34801561009d57600080fd5b506100b860048036038101906100b391906119a7565b610387565b6040516100c9959493929190611a00565b60405180910390f35b3480156100de57600080fd5b506100f960048036038101906100f491906119a7565b610415565b6040516101099493929190611a87565b60405180910390f35b34801561011e57600080fd5b50610139600480360381019061013491906119a7565b610492565b6040516101469190611b77565b60405180910390f35b34801561015b57600080fd5b5061017660048036038101906101719190611bbf565b610555565b005b34801561018457600080fd5b5061018d6108a8565b005b610197610acd565b005b6000600160008373ffffffffffffffffffffffffffffffffffffffff1673ffffffffffffffffffffffffffffffffffffffff16815260200190815260200160002090506000600260003373ffffffffffffffffffffffffffffffffffffffff1673ffffffffffffffffffffffffffffffffffffffff168152602001908152602001600020905081600b01543414801561025e57508273ffffffffffffffffffffffffffffffffffffffff163373ffffffffffffffffffffffffffffffffffffffff1614155b80156102ba5750600073ffffffffffffffffffffffffffffffffffffffff168160000160089054906101000a900473ffffffffffffffffffffffffffffffffffffffff1673ffffffffffffffffffffffffffffffffffffffff16145b6102c357600080fd5b338260010160006101000a81548173ffffffffffffffffffffffffffffffffffffffff021916908373ffffffffffffffffffffffffffffffffffffffff160217905550828160000160086101000a81548173ffffffffffffffffffffffffffffffffffffffff021916908373ffffffffffffffffffffffffffffffffffffffff1602179055507f784517407ffa2f1943340ad5f22ac0c73b8349bc52a9ac5a8fe00d6c7bdc9083833360405161037a929190611bff565b60405180910390a1505050565b60026020528060005260406000206000915090508060000160009054906101000a900461ffff16908060000160029054906101000a900461ffff16908060000160049054906101000a900461ffff16908060000160069054906101000a900461ffff16908060000160089054906101000a900473ffffffffffffffffffffffffffffffffffffffff16905085565b60016020528060005260406000206000915090508060000160009054906101000a900473ffffffffffffffffffffffffffffffffffffffff16908060010160009054906101000a900473ffffffffffffffffffffffffffffffffffffffff169080600b01549080600c0160009054906101000a900460ff16905084565b61049a611921565b600160008373ffffffffffffffffffffffffffffffffffffffff1673ffffffffffffffffffffffffffffffffffffffff168152602001908152602001600020600201600980602002604051908101604052809291908260098015610549576020028201915b8160009054906101000a900473ffffffffffffffffffffffffffffffffffffffff1673ffffffffffffffffffffffffffffffffffffffff16815260200190600101908083116104ff575b50505050509050919050565b6000600160008473ffffffffffffffffffffffffffffffffffffffff1673ffffffffffffffffffffffffffffffffffffffff168152602001908152602001600020905060008373ffffffffffffffffffffffffffffffffffffffff163373ffffffffffffffffffffffffffffffffffffffff16149050600073ffffffffffffffffffffffffffffffffffffffff168260010160009054906101000a900473ffffffffffffffffffffffffffffffffffffffff1673ffffffffffffffffffffffffffffffffffffffff1614158015610640575080151582600c0160009054906101000a900460ff161515145b80156106af5750600073ffffffffffffffffffffffffffffffffffffffff1682600201846009811061067557610674611c28565b5b0160009054906101000a900473ffffffffffffffffffffffffffffffffffffffff1673ffffffffffffffffffffffffffffffffffffffff16145b6106b857600080fd5b81600c0160009054906101000a900460ff161582600c0160006101000a81548160ff021916908315150217905550338260020184600981106106fd576106fc611c28565b5b0160006101000a81548173ffffffffffffffffffffffffffffffffffffffff021916908373ffffffffffffffffffffffffffffffffffffffff1602179055507fdeb3a6837278f6e9914a507e4d73f08e841d8fca434fb97d4307b3b0d3d6b10584338560405161076f93929190611c57565b60405180910390a16000806000610820856002016009806020026040519081016040528092919082600980156107f0576020028201915b8160009054906101000a900473ffffffffffffffffffffffffffffffffffffffff1673ffffffffffffffffffffffffffffffffffffffff16815260200190600101908083116107a6575b5050505050888760010160009054906101000a900473ffffffffffffffffffffffffffffffffffffffff16610d10565b925092509250828061082f5750815b806108375750805b1561089f5782156108515761084c8788611173565b61089e565b811561088a57610885878660010160009054906101000a900473ffffffffffffffffffffffffffffffffffffffff16611173565b61089d565b801561089c5761089b876000611173565b5b5b5b5b50505050505050565b6000600160003373ffffffffffffffffffffffffffffffffffffffff1673ffffffffffffffffffffffffffffffffffffffff1681526020019081526020016000209050600081600b015411801561094f5750600073ffffffffffffffffffffffffffffffffffffffff168160010160009054906101000a900473ffffffffffffffffffffffffffffffffffffffff1673ffffffffffffffffffffffffffffffffffffffff16145b61095857600080fd5b6000600260003373ffffffffffffffffffffffffffffffffffffffff1673ffffffffffffffffffffffffffffffffffffffff168152602001908152602001600020905060018160000160008282829054906101000a900461ffff166109bd9190611cbd565b92506101000a81548161ffff021916908361ffff16021790555060008160000160086101000a81548173ffffffffffffffffffffffffffffffffffffffff021916908373ffffffffffffffffffffffffffffffffffffffff1602179055503373ffffffffffffffffffffffffffffffffffffffff1682600b0154604051610a4390611d22565b60006040518083038185875af1925050503d8060008114610a80576040519150601f19603f3d011682016040523d82523d6000602084013e610a85565b606091505b505050600082600b01819055507f398bd6b21ae4164ec322fb0eb8c2eb6277f36fd41903fbbed594dfe12559128133604051610ac19190611d37565b60405180910390a15050565b6000600160003373ffffffffffffffffffffffffffffffffffffffff1673ffffffffffffffffffffffffffffffffffffffff1681526020019081526020016000209050600034118015610b245750600081600b0154145b610b2d57600080fd5b3481600b0181905550338160000160006101000a81548173ffffffffffffffffffffffffffffffffffffffff021916908373ffffffffffffffffffffffffffffffffffffffff160217905550600081600c0160006101000a81548160ff02191690831515021790555060005b6009811015610c0c576000826002018260098110610bba57610bb9611c28565b5b0160006101000a81548173ffffffffffffffffffffffffffffffffffffffff021916908373ffffffffffffffffffffffffffffffffffffffff1602179055508080610c0490611d52565b915050610b99565b506000600260003373ffffffffffffffffffffffffffffffffffffffff1673ffffffffffffffffffffffffffffffffffffffff168152602001908152602001600020905060018160000160008282829054906101000a900461ffff16610c729190611d9a565b92506101000a81548161ffff021916908361ffff160217905550338160000160086101000a81548173ffffffffffffffffffffffffffffffffffffffff021916908373ffffffffffffffffffffffffffffffffffffffff1602179055507f0ce3610e89a4bb9ec9359763f99110ed52a4abaea0b62028a1637e242ca2768b3383600b0154604051610d04929190611dd2565b60405180910390a15050565b600080600080600090505b6000805490508110156110f3576000808281548110610d3d57610d3c611c28565b5b90600052602060002001805480602002602001604051908101604052809291908181526020018280548015610d9157602002820191906000526020600020905b815481526020019060010190808311610d7d575b505050505090508781600181518110610dad57610dac611c28565b5b602002602001015160098110610dc657610dc5611c28565b5b602002015173ffffffffffffffffffffffffffffffffffffffff168882600081518110610df657610df5611c28565b5b602002602001015160098110610e0f57610e0e611c28565b5b602002015173ffffffffffffffffffffffffffffffffffffffff16148015610ec657508781600281518110610e4757610e46611c28565b5b602002602001015160098110610e6057610e5f611c28565b5b602002015173ffffffffffffffffffffffffffffffffffffffff168882600081518110610e9057610e8f611c28565b5b602002602001015160098110610ea957610ea8611c28565b5b602002015173ffffffffffffffffffffffffffffffffffffffff16145b8015610f2f57508673ffffffffffffffffffffffffffffffffffffffff168882600081518110610ef957610ef8611c28565b5b602002602001015160098110610f1257610f11611c28565b5b602002015173ffffffffffffffffffffffffffffffffffffffff16145b94508781600181518110610f4657610f45611c28565b5b602002602001015160098110610f5f57610f5e611c28565b5b602002015173ffffffffffffffffffffffffffffffffffffffff168882600081518110610f8f57610f8e611c28565b5b602002602001015160098110610fa857610fa7611c28565b5b602002015173ffffffffffffffffffffffffffffffffffffffff1614801561105f57508781600281518110610fe057610fdf611c28565b5b602002602001015160098110610ff957610ff8611c28565b5b602002015173ffffffffffffffffffffffffffffffffffffffff16888260008151811061102957611028611c28565b5b60200260200101516009811061104257611041611c28565b5b602002015173ffffffffffffffffffffffffffffffffffffffff16145b80156110c857508573ffffffffffffffffffffffffffffffffffffffff16888260008151811061109257611091611c28565b5b6020026020010151600981106110ab576110aa611c28565b5b602002015173ffffffffffffffffffffffffffffffffffffffff16145b935084806110d35750835b156110df57505061116a565b5080806110eb90611d52565b915050610d1b565b5060005b600981101561116457600073ffffffffffffffffffffffffffffffffffffffff1687826009811061112b5761112a611c28565b5b602002015173ffffffffffffffffffffffffffffffffffffffff1603611151575061116a565b808061115c90611d52565b9150506110f7565b50600190505b93509350939050565b6000600160008473ffffffffffffffffffffffffffffffffffffffff1673ffffffffffffffffffffffffffffffffffffffff1681526020019081526020016000209050600081600b0154905060008260010160009054906101000a900473ffffffffffffffffffffffffffffffffffffffff16905060008073ffffffffffffffffffffffffffffffffffffffff168573ffffffffffffffffffffffffffffffffffffffff1614905080156112f8578573ffffffffffffffffffffffffffffffffffffffff168360405161124590611d22565b60006040518083038185875af1925050503d8060008114611282576040519150601f19603f3d011682016040523d82523d6000602084013e611287565b606091505b5050508173ffffffffffffffffffffffffffffffffffffffff16836040516112ae90611d22565b60006040518083038185875af1925050503d80600081146112eb576040519150601f19603f3d011682016040523d82523d6000602084013e6112f0565b606091505b50505061136e565b8473ffffffffffffffffffffffffffffffffffffffff1660028461131c9190611dfb565b60405161132890611d22565b60006040518083038185875af1925050503d8060008114611365576040519150601f19603f3d011682016040523d82523d6000602084013e61136a565b606091505b5050505b7f6e3e0cc857b3d5ac7fddb7cd1e45d2db238213951c9f3b3dd68adadaee88e9c3868560010160009054906101000a900473ffffffffffffffffffffffffffffffffffffffff168787600b01546040516113cb9493929190611e55565b60405180910390a18573ffffffffffffffffffffffffffffffffffffffff168573ffffffffffffffffffffffffffffffffffffffff161461140d576000611410565b60015b60ff16600260008873ffffffffffffffffffffffffffffffffffffffff1673ffffffffffffffffffffffffffffffffffffffff16815260200190815260200160002060000160028282829054906101000a900461ffff166114719190611d9a565b92506101000a81548161ffff021916908361ffff1602179055508173ffffffffffffffffffffffffffffffffffffffff168573ffffffffffffffffffffffffffffffffffffffff16146114c55760006114c8565b60015b60ff16600260008873ffffffffffffffffffffffffffffffffffffffff1673ffffffffffffffffffffffffffffffffffffffff16815260200190815260200160002060000160048282829054906101000a900461ffff166115299190611d9a565b92506101000a81548161ffff021916908361ffff1602179055508061154f576000611552565b60015b60ff16600260008873ffffffffffffffffffffffffffffffffffffffff1673ffffffffffffffffffffffffffffffffffffffff16815260200190815260200160002060000160068282829054906101000a900461ffff166115b39190611d9a565b92506101000a81548161ffff021916908361ffff1602179055506000600260008873ffffffffffffffffffffffffffffffffffffffff1673ffffffffffffffffffffffffffffffffffffffff16815260200190815260200160002060000160086101000a81548173ffffffffffffffffffffffffffffffffffffffff021916908373ffffffffffffffffffffffffffffffffffffffff1602179055508173ffffffffffffffffffffffffffffffffffffffff168573ffffffffffffffffffffffffffffffffffffffff161461168957600061168c565b60015b60ff16600260008473ffffffffffffffffffffffffffffffffffffffff1673ffffffffffffffffffffffffffffffffffffffff16815260200190815260200160002060000160028282829054906101000a900461ffff166116ed9190611d9a565b92506101000a81548161ffff021916908361ffff1602179055508573ffffffffffffffffffffffffffffffffffffffff168573ffffffffffffffffffffffffffffffffffffffff1614611741576000611744565b60015b60ff16600260008473ffffffffffffffffffffffffffffffffffffffff1673ffffffffffffffffffffffffffffffffffffffff16815260200190815260200160002060000160048282829054906101000a900461ffff166117a59190611d9a565b92506101000a81548161ffff021916908361ffff160217905550806117cb5760006117ce565b60015b60ff16600260008473ffffffffffffffffffffffffffffffffffffffff1673ffffffffffffffffffffffffffffffffffffffff16815260200190815260200160002060000160068282829054906101000a900461ffff1661182f9190611d9a565b92506101000a81548161ffff021916908361ffff1602179055506000600260008473ffffffffffffffffffffffffffffffffffffffff1673ffffffffffffffffffffffffffffffffffffffff16815260200190815260200160002060000160086101000a81548173ffffffffffffffffffffffffffffffffffffffff021916908373ffffffffffffffffffffffffffffffffffffffff160217905550600084600b018190555060008460010160006101000a81548173ffffffffffffffffffffffffffffffffffffffff021916908373ffffffffffffffffffffffffffffffffffffffff160217905550505050505050565b604051806101200160405280600990602082028036833780820191505090505090565b600080fd5b600073ffffffffffffffffffffffffffffffffffffffff82169050919050565b600061197482611949565b9050919050565b61198481611969565b811461198f57600080fd5b50565b6000813590506119a18161197b565b92915050565b6000602082840312156119bd576119bc611944565b5b60006119cb84828501611992565b91505092915050565b600061ffff82169050919050565b6119eb816119d4565b82525050565b6119fa81611969565b82525050565b600060a082019050611a1560008301886119e2565b611a2260208301876119e2565b611a2f60408301866119e2565b611a3c60608301856119e2565b611a4960808301846119f1565b9695505050505050565b6000819050919050565b611a6681611a53565b82525050565b60008115159050919050565b611a8181611a6c565b82525050565b6000608082019050611a9c60008301876119f1565b611aa960208301866119f1565b611ab66040830185611a5d565b611ac36060830184611a78565b95945050505050565b600060099050919050565b600081905092915050565b6000819050919050565b611af581611969565b82525050565b6000611b078383611aec565b60208301905092915050565b6000602082019050919050565b611b2981611acc565b611b338184611ad7565b9250611b3e82611ae2565b8060005b83811015611b6f578151611b568782611afb565b9650611b6183611b13565b925050600181019050611b42565b505050505050565b600061012082019050611b8d6000830184611b20565b92915050565b611b9c81611a53565b8114611ba757600080fd5b50565b600081359050611bb981611b93565b92915050565b60008060408385031215611bd657611bd5611944565b5b6000611be485828601611992565b9250506020611bf585828601611baa565b9150509250929050565b6000604082019050611c1460008301856119f1565b611c2160208301846119f1565b9392505050565b7f4e487b7100000000000000000000000000000000000000000000000000000000600052603260045260246000fd5b6000606082019050611c6c60008301866119f1565b611c7960208301856119f1565b611c866040830184611a5d565b949350505050565b7f4e487b7100000000000000000000000000000000000000000000000000000000600052601160045260246000fd5b6000611cc8826119d4565b9150611cd3836119d4565b925082821015611ce657611ce5611c8e565b5b828203905092915050565b600081905092915050565b50565b6000611d0c600083611cf1565b9150611d1782611cfc565b600082019050919050565b6000611d2d82611cff565b9150819050919050565b6000602082019050611d4c60008301846119f1565b92915050565b6000611d5d82611a53565b91507fffffffffffffffffffffffffffffffffffffffffffffffffffffffffffffffff8203611d8f57611d8e611c8e565b5b600182019050919050565b6000611da5826119d4565b9150611db0836119d4565b92508261ffff03821115611dc757611dc6611c8e565b5b828201905092915050565b6000604082019050611de760008301856119f1565b611df46020830184611a5d565b9392505050565b6000611e0682611a53565b9150611e1183611a53565b9250817fffffffffffffffffffffffffffffffffffffffffffffffffffffffffffffffff0483118215151615611e4a57611e49611c8e565b5b828202905092915050565b6000608082019050611e6a60008301876119f1565b611e7760208301866119f1565b611e8460408301856119f1565b611e916060830184611a5d565b9594505050505056fea2646970667358221220e4debf1cc78009012f061238810e31ad4fd967b6c88aadadd9008aeed421ba1464736f6c634300080e0033",
  "immutableReferences": {},
  "source": "// SPDX-License-Identifier: MIT\npragma solidity >=0.4.22 <0.9.0;\n\ncontract TicTacToe {\n\n  event Created(address host, uint bet);\n  event Cancelled(address host);\n  event Started(address host, address visitor);\n  event Move(address host, address author, uint coords);\n  event Squared(address host, address visitor, address winner, uint bet);\n\n  uint[][] private scenarii = [[0,1,2],[3,4,5],[6,7,8],[0,3,6],[1,4,7],[2,5,8],[0,4,8],[2,4,6]];\n\n  struct Game {\n    address host;\n    address visitor;\n    address[9] game;\n    uint bet;\n    bool hostTurn;\n  }\n\n  struct Status {\n    uint16 created;\n    uint16 won;\n    uint16 lost;\n    uint16 tie;\n    address current;\n  }\n\n  mapping (address=>Game) public games;\n\n  mapping (address=>Status) public status;\n\n  function getGame(address host) public view returns (address[9] memory){\n    return games[host].game;\n  }\n\n  function move(address host, uint cell) public {\n    Game storage game = games[host];\n    bool isHost = msg.sender == host;\n    require(game.visitor != address(0) && game.hostTurn == isHost && game.game[cell] == address(0));\n    game.hostTurn = !game.hostTurn;\n    game.game[cell] = msg.sender;\n    emit Move(host,msg.sender,cell);\n    (bool hostWins, bool visitorWins, bool tie) = checkWinner(game.game, host, game.visitor );\n    if(hostWins || visitorWins || tie){\n      if(hostWins){\n        pay(host, host);\n      } else if(visitorWins){\n        pay(host, game.visitor);\n      } else if(tie){\n        pay(host, address(0));\n      }\n    }\n  }\n\n  function pay(address host, address winner) private {\n    Game storage game = games[host];\n    uint bet = game.bet;\n    address visitor = game.visitor;\n    bool isTie = winner == address(0);\n    if(isTie){\n      host.call{value: bet}(\"\");\n      visitor.call{value: bet}(\"\");\n    }else{\n      winner.call{value: bet * 2}(\"\");\n    }\n    emit Squared(host, game.visitor, winner, game.bet);\n    // Update players stats.\n    status[host].won += winner == host ? 1 : 0;\n    status[host].lost += winner == visitor ? 1 : 0;\n    status[host].tie += isTie ? 1 : 0;\n    status[host].current = address(0);\n    status[visitor].won += winner == visitor ? 1 : 0;\n    status[visitor].lost += winner == host ? 1 : 0;\n    status[visitor].tie += isTie ? 1 : 0;\n    status[visitor].current = address(0);\n    // Reset game tracker.\n    game.bet = 0;\n    game.visitor = address(0);\n  }\n\n  function checkWinner(address[9] memory game, address host, address visitor) view private returns (bool hostWins, bool visitorWins, bool tie){\n    // Check win scenarii.\n    for (uint i=0; i < scenarii.length; i++){\n      uint[] memory scenario = scenarii[i];\n      hostWins = game[scenario[0]] == game[scenario[1]] && game[scenario[0]] == game[scenario[2]] && game[scenario[0]] == host;\n      visitorWins = game[scenario[0]] == game[scenario[1]] && game[scenario[0]] == game[scenario[2]] && game[scenario[0]] == visitor;\n      if(hostWins || visitorWins){\n        return (hostWins,visitorWins,tie);\n      }\n    }\n    // Check if the grid is finished\n    for(uint i = 0; i< game.length; i++){\n      if(game[i] == address(0)){\n        return (hostWins, visitorWins,tie);\n      }\n    }\n    tie = true;\n    return (hostWins,visitorWins,tie);\n  }\n\n  function create() public payable {\n    Game storage game = games[msg.sender];\n    // Requires a bet value and cancels if this player has already planned a game.\n    require(msg.value > 0 && game.bet == 0);\n    game.bet = msg.value;\n    game.host = msg.sender;\n    game.hostTurn = false; // TODO: add randomness.\n    for(uint i = 0; i < game.game.length; i++){\n      game.game[i] = address(0);\n    }\n    Status storage player = status[msg.sender];\n    player.created += 1;\n    player.current = msg.sender;\n    emit Created(msg.sender, game.bet);\n  }\n\n  function cancel() public {\n    Game storage game = games[msg.sender];\n    require(game.bet > 0 && game.visitor == address(0));\n    Status storage player = status[msg.sender];\n    // The require above should ensure that player.created > 0, and prevent underflow.\n    player.created -= 1;\n    player.current = address(0);\n    // Recharge user.\n    msg.sender.call{value: game.bet}(\"\");\n    game.bet = 0;\n    emit Cancelled(msg.sender);\n  }\n\n  function join(address host) public payable {\n    Game storage game = games[host];\n    Status storage player = status[msg.sender];\n    // Bets must be identical, addresses must be different, visitor must have no current game.\n    require(msg.value == game.bet && msg.sender != host && player.current == address(0));\n    game.visitor = msg.sender;\n    player.current = host;\n    emit Started(host, msg.sender);\n  }\n}\n",
  "sourcePath": "/home/astrahasis/Dokumente/dev/DeTacToe/contracts/TicTacToe.sol",
  "compiler": {
    "name": "solc",
    "version": "0.8.14+commit.80d49f37.Emscripten.clang"
  },
  "schemaVersion": "3.4.7",
  "updatedAt": "2022-06-30T09:23:36.823Z",
  "networkType": "ethereum",
  "devdoc": {
    "kind": "dev",
    "methods": {},
    "version": 1
  },
  "userdoc": {
    "kind": "user",
    "methods": {},
    "version": 1
  }
}